{
  "contractName": "Lottery",
  "abi": [
    {
      "inputs": [
        {
          "internalType": "address",
          "name": "_ethUsdPriceFeed",
          "type": "address"
        },
        {
          "internalType": "address",
          "name": "_vrfCoordinator",
          "type": "address"
        },
        {
          "internalType": "address",
          "name": "_link",
          "type": "address"
        },
        {
          "internalType": "bytes32",
          "name": "_keyHash",
          "type": "bytes32"
        }
      ],
      "stateMutability": "nonpayable",
      "type": "constructor"
    },
    {
      "anonymous": false,
      "inputs": [
        {
          "indexed": false,
          "internalType": "bytes32",
          "name": "requestId",
          "type": "bytes32"
        }
      ],
      "name": "RequestedRandomness",
      "type": "event"
    },
    {
      "inputs": [],
      "name": "fee",
      "outputs": [
        {
          "internalType": "uint256",
          "name": "",
          "type": "uint256"
        }
      ],
      "stateMutability": "view",
      "type": "function"
    },
    {
      "inputs": [],
      "name": "keyHash",
      "outputs": [
        {
          "internalType": "bytes32",
          "name": "",
          "type": "bytes32"
        }
      ],
      "stateMutability": "view",
      "type": "function"
    },
    {
      "inputs": [],
      "name": "lotteryState",
      "outputs": [
        {
          "internalType": "enum Lottery.LOTTERY_STATE",
          "name": "",
          "type": "uint8"
        }
      ],
      "stateMutability": "view",
      "type": "function"
    },
    {
      "inputs": [
        {
          "internalType": "uint256",
          "name": "",
          "type": "uint256"
        }
      ],
      "name": "players",
      "outputs": [
        {
          "internalType": "address payable",
          "name": "",
          "type": "address"
        }
      ],
      "stateMutability": "view",
      "type": "function"
    },
    {
      "inputs": [],
      "name": "randomness",
      "outputs": [
        {
          "internalType": "uint256",
          "name": "",
          "type": "uint256"
        }
      ],
      "stateMutability": "view",
      "type": "function"
    },
    {
      "inputs": [
        {
          "internalType": "bytes32",
          "name": "requestId",
          "type": "bytes32"
        },
        {
          "internalType": "uint256",
          "name": "randomness",
          "type": "uint256"
        }
      ],
      "name": "rawFulfillRandomness",
      "outputs": [],
      "stateMutability": "nonpayable",
      "type": "function"
    },
    {
      "inputs": [],
      "name": "recentWinner",
      "outputs": [
        {
          "internalType": "address",
          "name": "",
          "type": "address"
        }
      ],
      "stateMutability": "view",
      "type": "function"
    },
    {
      "inputs": [],
      "name": "usdEntryFee",
      "outputs": [
        {
          "internalType": "uint256",
          "name": "",
          "type": "uint256"
        }
      ],
      "stateMutability": "view",
      "type": "function"
    },
    {
      "inputs": [],
      "name": "enter",
      "outputs": [],
      "stateMutability": "payable",
      "type": "function"
    },
    {
      "inputs": [],
      "name": "getEntranceFee",
      "outputs": [
        {
          "internalType": "uint256",
          "name": "",
          "type": "uint256"
        }
      ],
      "stateMutability": "view",
      "type": "function"
    },
    {
      "inputs": [],
      "name": "getLatestEthUsdPrice",
      "outputs": [
        {
          "internalType": "uint256",
          "name": "",
          "type": "uint256"
        }
      ],
      "stateMutability": "view",
      "type": "function"
    },
    {
      "inputs": [],
      "name": "startLottery",
      "outputs": [],
      "stateMutability": "nonpayable",
      "type": "function"
    },
    {
      "inputs": [],
      "name": "endLottery",
      "outputs": [],
      "stateMutability": "nonpayable",
      "type": "function"
    }
  ],
  "bytecode": "0x60c060405234801561001057600080fd5b506040516113593803806113598339818101604052608081101561003357600080fd5b810190808051906020019092919080519060200190929190805190602001909291908051906020019092919050505082828173ffffffffffffffffffffffffffffffffffffffff1660a08173ffffffffffffffffffffffffffffffffffffffff1660601b815250508073ffffffffffffffffffffffffffffffffffffffff1660808173ffffffffffffffffffffffffffffffffffffffff1660601b81525050505083600260006101000a81548173ffffffffffffffffffffffffffffffffffffffff021916908373ffffffffffffffffffffffffffffffffffffffff160217905550603260038190555060018060146101000a81548160ff0219169083600281111561013b57fe5b021790555033600160006101000a81548173ffffffffffffffffffffffffffffffffffffffff021916908373ffffffffffffffffffffffffffffffffffffffff16021790555067016345785d8a0000600681905550806007819055505050505060805160601c60a05160601c6111906101c9600039806107a15280610d5e525080610d2252506111906000f3fe6080604052600436106100c25760003560e01c806361728f391161007f57806394985ddd1161005957806394985ddd1461025c578063ddca3f43146102a1578063e97dcb62146102cc578063f71d96cb146102d6576100c2565b806361728f39146101cd5780636939864b146101f857806388ab139a14610231576100c2565b806309bc33a7146100c75780631593a8c7146100f2578063160344e2146101095780633021459914610120578063360131891461014b5780634f8c70cf14610176575b600080fd5b3480156100d357600080fd5b506100dc610351565b6040518082815260200191505060405180910390f35b3480156100fe57600080fd5b5061010761038c565b005b34801561011557600080fd5b5061011e6104fc565b005b34801561012c57600080fd5b5061013561066b565b6040518082815260200191505060405180910390f35b34801561015757600080fd5b50610160610754565b6040518082815260200191505060405180910390f35b34801561018257600080fd5b5061018b61075a565b604051808273ffffffffffffffffffffffffffffffffffffffff1673ffffffffffffffffffffffffffffffffffffffff16815260200191505060405180910390f35b3480156101d957600080fd5b506101e2610780565b6040518082815260200191505060405180910390f35b34801561020457600080fd5b5061020d610786565b6040518082600281111561021d57fe5b60ff16815260200191505060405180910390f35b34801561023d57600080fd5b50610246610799565b6040518082815260200191505060405180910390f35b34801561026857600080fd5b5061029f6004803603604081101561027f57600080fd5b81019080803590602001909291908035906020019092919050505061079f565b005b3480156102ad57600080fd5b506102b661086e565b6040518082815260200191505060405180910390f35b6102d4610874565b005b3480156102e257600080fd5b5061030f600480360360208110156102f957600080fd5b81019080803590602001909291905050506109f1565b604051808273ffffffffffffffffffffffffffffffffffffffff1673ffffffffffffffffffffffffffffffffffffffff16815260200191505060405180910390f35b600080670de0b6b3a76400009050600061036961066b565b905060006305f5e1006003540282848161037f57fe5b0402905080935050505090565b600160009054906101000a900473ffffffffffffffffffffffffffffffffffffffff1673ffffffffffffffffffffffffffffffffffffffff163373ffffffffffffffffffffffffffffffffffffffff1614610432576040517f08c379a00000000000000000000000000000000000000000000000000000000081526004018080602001828103825260288152602001806111336028913960400191505060405180910390fd5b6000600281111561043f57fe5b600160149054906101000a900460ff16600281111561045a57fe5b146104cd576040517f08c379a00000000000000000000000000000000000000000000000000000000081526004018080602001828103825260128152602001807f43616e6e6f7420656e64206c6f7474657279000000000000000000000000000081525060200191505060405180910390fd5b6002600160146101000a81548160ff021916908360028111156104ec57fe5b02179055506104f9610a2d565b50565b600160009054906101000a900473ffffffffffffffffffffffffffffffffffffffff1673ffffffffffffffffffffffffffffffffffffffff163373ffffffffffffffffffffffffffffffffffffffff16146105a2576040517f08c379a00000000000000000000000000000000000000000000000000000000081526004018080602001828103825260288152602001806111336028913960400191505060405180910390fd5b600160028111156105af57fe5b600160149054906101000a900460ff1660028111156105ca57fe5b1461063d576040517f08c379a00000000000000000000000000000000000000000000000000000000081526004018080602001828103825260198152602001807f43616e27742073746172742061206e6577206c6f74746572790000000000000081525060200191505060405180910390fd5b6000600160146101000a81548160ff0219169083600281111561065c57fe5b02179055506000600581905550565b600080600080600080600260009054906101000a900473ffffffffffffffffffffffffffffffffffffffff1673ffffffffffffffffffffffffffffffffffffffff1663feaf968c6040518163ffffffff1660e01b815260040160a06040518083038186803b1580156106dc57600080fd5b505afa1580156106f0573d6000803e3d6000fd5b505050506040513d60a081101561070657600080fd5b81019080805190602001909291908051906020019092919080519060200190929190805190602001909291908051906020019092919050505094509450945094509450839550505050505090565b60055481565b600460009054906101000a900473ffffffffffffffffffffffffffffffffffffffff1681565b60075481565b600160149054906101000a900460ff1681565b60035481565b7f000000000000000000000000000000000000000000000000000000000000000073ffffffffffffffffffffffffffffffffffffffff163373ffffffffffffffffffffffffffffffffffffffff1614610860576040517f08c379a000000000000000000000000000000000000000000000000000000000815260040180806020018281038252601f8152602001807f4f6e6c7920565246436f6f7264696e61746f722063616e2066756c66696c6c0081525060200191505060405180910390fd5b61086a8282610b16565b5050565b60065481565b61087c610351565b3410156108f1576040517f08c379a00000000000000000000000000000000000000000000000000000000081526004018080602001828103825260178152602001807f4e6f7420656e6f7567682045544820746f20656e74657200000000000000000081525060200191505060405180910390fd5b600060028111156108fe57fe5b600160149054906101000a900460ff16600281111561091957fe5b1461098c576040517f08c379a00000000000000000000000000000000000000000000000000000000081526004018080602001828103825260138152602001807f4c6f7474657279206973206e6f74206f70656e0000000000000000000000000081525060200191505060405180910390fd5b6008339080600181540180825580915050600190039060005260206000200160009091909190916101000a81548173ffffffffffffffffffffffffffffffffffffffff021916908373ffffffffffffffffffffffffffffffffffffffff160217905550565b600881815481106109fe57fe5b906000526020600020016000915054906101000a900473ffffffffffffffffffffffffffffffffffffffff1681565b6000600280811115610a3b57fe5b600160149054906101000a900460ff166002811115610a5657fe5b14610ac9576040517f08c379a000000000000000000000000000000000000000000000000000000000815260040180806020018281038252601e8152602001807f4e6565647320746f2062652063616c63756c6174696e672077696e6e6572000081525060200191505060405180910390fd5b6000610ad9600754600654610d1e565b90507fe5f5b44d72d4143c278eb745c4acc0695c4a5bc616be5beecf46abe29661780e816040518082815260200191505060405180910390a15090565b60008111610b8c576040517f08c379a00000000000000000000000000000000000000000000000000000000081526004018080602001828103825260178152602001807f72616e646f6d206e756d626572206e6f7420666f756e6400000000000000000081525060200191505060405180910390fd5b60006008805490508281610b9c57fe5b06905060088181548110610bac57fe5b9060005260206000200160009054906101000a900473ffffffffffffffffffffffffffffffffffffffff1673ffffffffffffffffffffffffffffffffffffffff166108fc479081150290604051600060405180830381858888f19350505050158015610c1c573d6000803e3d6000fd5b5060088181548110610c2a57fe5b9060005260206000200160009054906101000a900473ffffffffffffffffffffffffffffffffffffffff16600460006101000a81548173ffffffffffffffffffffffffffffffffffffffff021916908373ffffffffffffffffffffffffffffffffffffffff160217905550600067ffffffffffffffff81118015610cad57600080fd5b50604051908082528060200260200182016040528015610cdc5781602001602082028036833780820191505090505b5060089080519060200190610cf2929190611065565b5060018060146101000a81548160ff02191690836002811115610d1157fe5b0217905550819150505050565b60007f000000000000000000000000000000000000000000000000000000000000000073ffffffffffffffffffffffffffffffffffffffff16634000aea07f00000000000000000000000000000000000000000000000000000000000000008486600060405160200180838152602001828152602001925050506040516020818303038152906040526040518463ffffffff1660e01b8152600401808473ffffffffffffffffffffffffffffffffffffffff1673ffffffffffffffffffffffffffffffffffffffff16815260200183815260200180602001828103825283818151815260200191508051906020019080838360005b83811015610e2e578082015181840152602081019050610e13565b50505050905090810190601f168015610e5b5780820380516001836020036101000a031916815260200191505b50945050505050602060405180830381600087803b158015610e7c57600080fd5b505af1158015610e90573d6000803e3d6000fd5b505050506040513d6020811015610ea657600080fd5b8101908080519060200190929190505050506000610ed98460003060008089815260200190815260200160002054610f2a565b9050610f01600160008087815260200190815260200160002054610fa490919063ffffffff16565b60008086815260200190815260200160002081905550610f21848261102c565b91505092915050565b600084848484604051602001808581526020018481526020018373ffffffffffffffffffffffffffffffffffffffff1673ffffffffffffffffffffffffffffffffffffffff1681526020018281526020019450505050506040516020818303038152906040528051906020012060001c9050949350505050565b600080828401905083811015611022576040517f08c379a000000000000000000000000000000000000000000000000000000000815260040180806020018281038252601b8152602001807f536166654d6174683a206164646974696f6e206f766572666c6f77000000000081525060200191505060405180910390fd5b8091505092915050565b60008282604051602001808381526020018281526020019250505060405160208183030381529060405280519060200120905092915050565b8280548282559060005260206000209081019282156110de579160200282015b828111156110dd5782518260006101000a81548173ffffffffffffffffffffffffffffffffffffffff021916908373ffffffffffffffffffffffffffffffffffffffff16021790555091602001919060010190611085565b5b5090506110eb91906110ef565b5090565b61112f91905b8082111561112b57600081816101000a81549073ffffffffffffffffffffffffffffffffffffffff0219169055506001016110f5565b5090565b9056fe4f6e6c7920746865206f776e65722063616e206578656375746520746869732066756e6374696f6ea2646970667358221220f70966e2ce83e4ea3f79b8a6ff6eb34882137b542fdaa2a04958760e8c70fd1d64736f6c63430006060033",
  "immutableReferences": {
    "76": [
      {
        "length": 32,
        "start": 3362
      }
    ],
    "78": [
      {
        "length": 32,
        "start": 1953
      },
      {
        "length": 32,
        "start": 3422
      }
    ]
  },
  "source": "// SPDX-License-Identifier: MIT\npragma solidity ^0.6.6;\n\nimport \"@chainlink/contracts/src/v0.6/interfaces/AggregatorV3Interface.sol\";\nimport \"@chainlink/contracts/src/v0.6/VRFConsumerBase.sol\";\nimport \"@chainlink/contracts/src/v0.6/vendor/SafeMathChainlink.sol\";\n\ncontract Lottery is VRFConsumerBase{\n    using SafeMathChainlink for uint256;\n\n    // Ownable functionlity\n    address private _owner;\n\n    // states of lottery - Open: Lottery is open to players, closed: lottery is closed\n    // Calculating: lottery is calculating winner so it is closed to new entrants\n    enum LOTTERY_STATE {OPEN, CLOSED, CALCULATING_WINNER}\n    // state variable for the enum\n    LOTTERY_STATE public lotteryState;\n\n    // our price feed from the chainlink oracle interface\n    AggregatorV3Interface internal ethUsdPriceFeed;\n    uint256 public usdEntryFee;\n    // recent winner\n    address public recentWinner;\n    // randomness variables\n    uint256 public randomness;\n    // fee\n    uint256 public fee;\n    // key hash\n    bytes32 public keyHash;\n    // array of players (type address payable)\n    address payable[] public players;\n\n    // events - get correct request id\n    event RequestedRandomness(bytes32 requestId);\n\n    // set the feed to the required address of the price feed\n    // this will make our contract network agnostic and allow us to run different\n    // tests on different price feeds\n    // need the VRF consumer base\n    constructor(address _ethUsdPriceFeed, address _vrfCoordinator, address _link, bytes32 _keyHash) \n        VRFConsumerBase(\n            _vrfCoordinator,\n            _link\n        )\n        public {\n        \n        ethUsdPriceFeed = AggregatorV3Interface(_ethUsdPriceFeed);\n        usdEntryFee = 50;\n        // Default state is closed once deployed\n        lotteryState = LOTTERY_STATE.CLOSED;\n        // set owner\n        _owner = msg.sender;\n        // set fee\n        fee = 100000000000000000; // 0.1 LINK\n        // set key hash\n        keyHash = _keyHash;\n    }\n\n    // onlyOwner modifier\n    modifier onlyOwner {\n        require(msg.sender == _owner, \"Only the owner can execute this function\");\n        _;\n    }\n\n    // users pay the USD equivalent of ETH to enter the lottery\n    function enter() public payable {\n        // A player submits their fee which is going to be greater than the entrance fee\n        // ETH equivalent of X USD\n        require(msg.value>=getEntranceFee(), \"Not enough ETH to enter\");\n        // require the lottery to be open\n        require(lotteryState == LOTTERY_STATE.OPEN, \"Lottery is not open\");\n        // add player to player array\n        players.push(msg.sender);\n    }\n\n    function getEntranceFee() public view returns(uint256) {\n        uint256 precision = 1 * 10 ** 18;\n        uint256 price = getLatestEthUsdPrice(); // 8 decimals\n        // divide precision expressed in wei (18 decimals) by the price\n        // and multiply by the cost in dollars and multiple by the rest of \n        // the precision\n        uint256 costToEnter = (precision / price) * (usdEntryFee * 100000000);\n        return costToEnter;\n    }\n\n    function getLatestEthUsdPrice() public view returns(uint256) {\n        (\n            uint80 roundID,\n            int price,\n            uint startedAt,\n            uint timeStamp,\n            uint80 answerInRound\n        ) = ethUsdPriceFeed.latestRoundData();\n        return uint256(price);\n    }\n\n    // only want the owner to start the lottery\n    function startLottery() public onlyOwner {\n        // require that the state of the lottery is closed\n        require(lotteryState == LOTTERY_STATE.CLOSED, \"Can't start a new lottery\");\n        // open the lottery\n        lotteryState = LOTTERY_STATE.OPEN;\n        // set the randomness variable\n        randomness = 0;\n    }\n\n    // get a provable random number from the oracle so we can end the lottery\n    function endLottery() public onlyOwner {\n        // lottery must be open\n        require(lotteryState == LOTTERY_STATE.OPEN, \"Cannot end lottery\");\n        // set lottery state to calculating winner\n        lotteryState = LOTTERY_STATE.CALCULATING_WINNER;\n        // call the pickWinner function\n        pickWinner();\n    }\n\n    function pickWinner() private returns(bytes32){\n        require(lotteryState == LOTTERY_STATE.CALCULATING_WINNER, \"Needs to be calculating winner\");\n        // add request randomness function from the VRF Function from Chainlink\n        bytes32 requestId = requestRandomness(keyHash, fee);\n        emit RequestedRandomness(requestId);\n    }\n\n    // send out request to the Chainlink VRF and it will be returned through this function\n    function fulfillRandomness(bytes32 requestId, uint256 randomness) internal override {\n        require(randomness > 0, \"random number not found\");\n        // pick random winner - get the remainder of the random number divided by the \n        // length of the players\n        uint256 index = randomness % players.length;\n        // send the winner all the ETH in the contract\n        players[index].transfer(address(this).balance);\n        // set the recent winner to the winner picked\n        recentWinner = players[index];\n        // reset the player array  - of length zero\n        players = new address payable[](0);\n        // reset lottery state to closed\n        lotteryState = LOTTERY_STATE.CLOSED;\n        // set the random number\n        randomness = randomness;\n    }\n}",
  "sourcePath": "/Users/andreachello/Coding/Blockchain/chainlink-lottery/contracts/Lottery.sol",
  "compiler": {
    "name": "solc",
    "version": "0.6.6+commit.6c089d02.Emscripten.clang"
  },
  "schemaVersion": "3.4.6",
  "updatedAt": "2022-03-20T03:28:13.597Z",
  "devdoc": {
    "methods": {}
  },
  "userdoc": {
    "methods": {}
  }
}